:100000000C943E000C9453000C9453000C94530039
:100010000C9453000C9453000C9453000C94530014
:100020000C9453000C9453000C9453000C94530004
:100030000C9453000C9453000C9453000C945300F4
:100040000C9453000C9453000C9453000C945300E4
:100050000C9453000C9453000C9453000C945300D4
:100060000C9453000C9453000C9453000C945300C4
:100070000C9453000C9453000C94530011241FBE95
:10008000CFEFD8E0DEBFCDBF11E0A0E0B1E0E4ECFF
:10009000F2E002C005900D92A437B107D9F70E9493
:1000A000E7000C9460010C94000095B19F70282F1C
:1000B000207F922B95B92A98299A00C0299832E47A
:1000C0003A95F1F700C025B12F7030E1839FC00150
:1000D0001124822B85B9299A00C0299800C008955F
:1000E00082E00E94550088E20E9455008CE00E9448
:1000F000550086E00E94550081E00C94550095B1B2
:100100009F70282F207F922B95B92A9A299A00C098
:10011000299832E43A95F1F700C025B12F7030E10B
:10012000839FC0011124822B85B9299A00C0299888
:1001300000C00895CF93DF93EC018991882319F0D3
:100140000E947F00FACFDF91CF910895882321F09C
:10015000813021F480EC03C080E801C080E0603190
:1001600008F4860F0C94550081E00E94550080E849
:100170000C94550088E18093C10086E08093C20012
:100180001092C5008CE08093C40008958091C00057
:1001900087FFFCCF8091C60008959091C00095FF25
:1001A000FCCF8093C60008950F931F93CF938C01CB
:1001B000C0E0F801EC0FF11D8081882321F00E943E
:1001C000CD00CF5FF6CFCF911F910F910895CF93C0
:1001D000DF9300D000D0CDB7DEB7809100019091C1
:1001E0000101A0910201B091030189839A83AB833D
:1001F000BC838FEF81B917B884B98EEF84B985B904
:1002000018B882E08AB90E9470000E94BA00309B40
:1002100026C0109A84E091E00E94D400CE0101969D
:100220000E94D40080E291E00E94D400CE010196A9
:100230000E94D40083EC99E00197F1F700C0000020
:1002400060E080E00E94A60089E291E00E949A00AE
:1002500063E081E00E94A60080E291E025C0109852
:100260008CE391E00E94D400CE0101960E94D4005C
:1002700087E591E00E94D400CE0101960E94D4004F
:1002800083EC99E00197F1F700C0000060E080E0A6
:100290000E94A60081E691E00E949A0063E081E05E
:1002A0000E94A60087E591E00E949A009FE32DE05E
:1002B00083E0915020408040E1F700C00000A7CFCC
:0402C000F894FFCFE0
:1002C4000D0A0000204D6F74696F6E206861732001
:1002D4006265656E206465746563746564212000DD
:1002E400204C4544204F4E20004D6F74696F6E20A2
:1002F400646574656374656421202000204D6F7407
:10030400696F6E20686173206265656E2073746F17
:1003140070706564212000204C4544204F464620DF
:10032400004D6F74696F6E2073746F707065642113
:040334002020000085
:00000001FF
