:100000000C943E000C9453000C9453000C94530039
:100010000C9453000C9453000C9453000C94530014
:100020000C9453000C9453000C9453000C94530004
:100030000C9453000C9453000C9453000C945300F4
:100040000C9453000C9453000C9453000C945300E4
:100050000C9453000C9453000C9453000C945300D4
:100060000C9453000C9453000C9453000C945300C4
:100070000C9453000C9453000C94530011241FBE95
:10008000CFEFD8E0DEBFCDBF11E0A0E0B1E0EAEDF8
:10009000F1E002C005900D92AE30B107D9F70E9491
:1000A00094000C94EB000C94000084B1806B84B934
:1000B00026982C9A81E58CBD08958EBD0DB407FE5F
:1000C000FDCF08950DB407FEFDCF8EB5089588E1EC
:1000D0008093C10086E08093C2001092C5008CE03E
:1000E0008093C40008958091C00087FFFCCF809169
:1000F000C60008959091C00095FFFCCF8093C60084
:1001000008950F931F93CF938C01C0E0F801EC0F7B
:10011000F11D8081882321F00E947A00CF5FF6CF05
:10012000CF911F910F910895CF93DF9300D000D00E
:100130001F92CDB7DEB782E08AB90E9467000E94A5
:10014000550080E1B82ECC24C394D12C20E2A22EFD
:10015000B5B880E00E945D002C980E946200E82EF5
:1001600083EC99E00197F1F700C0000080E091E096
:100170000E94810000E010E0F12C83E091E00E94F9
:10018000810080E3800F8983AA821B82CE010196C1
:100190000E948100C601002E02C0880F991F0A9498
:1001A000E2F78E219F21892B19F089E091E002C0AE
:1001B0008BE091E00E9481000F5F1F4F043011051A
:1001C000E1F69FE72AE186E0915020408040E1F788
:0A01D00000C00000BDCFF894FFCF7F
:0E01DA000A0D000A0D444950003100300000AB
:00000001FF
