:100000000C943E000C945B000C945B000C945B0021
:100010000C945B000C945B000C945B000C945B00F4
:100020000C945B000C945B000C945B000C945B00E4
:100030000C945B000C945B000C945B000C945B00D4
:100040000C945B000C945B000C945B000C945B00C4
:100050000C945B000C945B000C945B000C945B00B4
:100060000C945B000C945B000C945B000C945B00A4
:100070000C945B000C945B000C945B0011241FBE7D
:10008000CFEFD8E0DEBFCDBF11E0A0E0B1E0E0E708
:10009000F3E002C005900D92AC30B107D9F721E032
:1000A000ACE0B1E001C01D92AD30B207E1F70E94B3
:1000B0004F010C94B6010C9400001092B90082E03C
:1000C0008093B800ECEBF0E0808184608083089539
:1000D00084EA8093BC008091BC0087FFFCCF089528
:1000E0008093BB0084E88093BC008091BC0087FFB4
:1000F000FCCF089584EC8093BC008091BC0087FF06
:10010000FCCF8091BB00089584E88093BC0080916F
:10011000BC0087FFFCCF8091BB00089584E98093E9
:10012000BC008091BC0084FDFCCF08958091B90093
:10013000887F0895CF93C82F0E94680080E40E94B2
:1001400070008C2F0E947000CF910C948E00CF9382
:10015000C82F80910C018F7084609C2F907F892B19
:1001600080930C010E949A00000080910C018B7F0B
:1001700080930C010E949A0000C000C00000809192
:100180000C018F70282F246030E1C39FC00111241F
:10019000822B80930C010E949A00000080910C0138
:1001A0008B7F80930C010E949A0000C000C0000069
:1001B000CF910895CF93C82F88E080930C010E94BF
:1001C0009A008C2FCF910C94A700CF93C82F8091C9
:1001D0000C01896080930C010E949A008C2FCF91B2
:1001E0000C94A700CF93DF93EC018991882319F039
:1001F0000E94E500FACFDF91CF910895813049F058
:1002000030F0823041F0833041F490E505C0962F04
:1002100004C090E401C090E1960F892F80680C948F
:10022000DA00CF93DF93CDB7DEB760970FB6F894BF
:10023000DEBF0FBECDBF4AE050E0BE016F5F7F4F13
:100240000E947601CE0101960E94F20060960FB6E0
:10025000F894DEBF0FBECDBFDF91CF91089581E04E
:100260000C94DA0084E080930C010E949A0088E0EC
:100270008A95F1F7000082E00E94DA0088E20E948D
:10028000DA008FE00E94DA0081E00E94DA0086E066
:100290000E94DA000E942F0180E80C94DA000E948C
:1002A00032010E942F0180E091E00E94F2002FE9CC
:1002B00086E891E0215080409040E1F700C00000C6
:1002C000C0E06BE080E00E94FE00D1E0DC0F8C2FEC
:1002D00090E00E9411012FE986E891E021508040D2
:1002E0009040E1F700C00000CD2FEBCF4532510523
:1002F00020F4423010F00C948101FB011082CB01FC
:100300000895BB274A3031F4992322F4BDE2909539
:1003100081959F4F0C948D01BB27FB015527AA2780
:10032000880F991FAA1FA41710F0A41B8395505182
:10033000B9F7A05DAA3308F0A95DA193009779F7FA
:10034000B111B1931192CB010C94A601DC01FC0117
:10035000672F71917723E1F7329704C07C916D93F9
:1003600070836291AE17BF07C8F30895F894FFCF6A
:0C037000436F756E746572203D20000024
:00000001FF
