:100000000C943E000C9453000C9453000C94530039
:100010000C9453000C9453000C9453000C94530014
:100020000C9453000C9453000C9453000C94530004
:100030000C9453000C9453000C9453000C945300F4
:100040000C9453000C9453000C9453000C945300E4
:100050000C9453000C9453000C9453000C945300D4
:100060000C9453000C9453000C9453000C945300C4
:100070000C9453000C9453000C94530011241FBE95
:10008000CFEFD8E0DEBFCDBF11E0A0E0B1E0E2EFFE
:10009000F4E002C005900D92A031B107D9F70E949B
:1000A00075000C9477020C940000ECE7F0E080817E
:1000B00080648083EAE7F0E0808187688083089528
:1000C00090917C00987F8770892B80937C00809131
:1000D0007A00806480937A0080917A0086FDFCCF5C
:1000E00080917800909179000895CF93DF93CDB7F8
:1000F000DEB760970FB6F894DEBF0FBECDBF80E1CC
:10010000E0E0F1E0DE01119601900D928A95E1F7B1
:100110008FEF87B984B911B80E94550088EEC82EB8
:1001200083E0D82E8824839494E6E92EF12C22E0F3
:10013000922E0AE010E034E0A32E48E0B42E80E0D6
:100140000E946000BC0180E090E00E947C0120E001
:1001500030E040EA50E40E94E20120E030E040E874
:100160005AE30E94E20120E030E048EC52E40E94B1
:10017000E20120E030E040E251E40E94E2010E940E
:1001800046019B0115B8CB01B6010E941E01E1E0BA
:10019000F0E0EC0FFD1FE60FF71F808188B9283EC5
:1001A00083E038070CF085B883EC99E00197F1F70C
:1001B00000C0000015B8C901B6010E941E01B701B8
:1001C0000E941E01E1E0F0E0EC0FFD1FE60FF71FBB
:1001D000808188B995B883EC99E00197F1F700C068
:1001E000000015B8C901B7010E941E01B8010E94A4
:1001F0001E01E1E0F0E0EC0FFD1FE60FF71F80812C
:10020000806888B9A5B883EC99E00197F1F700C040
:10021000000015B8C901B8010E941E01E1E0F0E03C
:10022000EC0FFD1FE80FF91F808188B9B5B883EC8A
:1002300099E00197F1F700C0000081CF97FB072EEE
:1002400016F4009407D077FD09D00E94320107FC14
:1002500005D03EF4909581959F4F089570956195D6
:100260007F4F0895AA1BBB1B51E107C0AA1FBB1FEC
:10027000A617B70710F0A61BB70B881F991F5A9532
:10028000A9F780959095BC01CD0108950E944D017C
:100290006894B1110C94DC0108950E94C10188F0AA
:1002A0009F5798F0B92F9927B751B0F0E1F0660F3A
:1002B000771F881F991F1AF0BA95C9F714C0B1307B
:1002C00091F00E94DB01B1E008950C94DB01672FEF
:1002D000782F8827B85F39F0B93FCCF386957795AA
:1002E0006795B395D9F73EF4909580957095619593
:1002F0007F4F8F4F9F4F0895E89409C097FB3EF4BE
:1003000090958095709561957F4F8F4F9F4F992362
:10031000A9F0F92F96E9BB279395F69587957795E0
:100320006795B795F111F8CFFAF4BB0F11F460FFA0
:100330001BC06F5F7F4F8F4F9F4F16C0882311F0F8
:1003400096E911C0772321F09EE8872F762F05C00C
:10035000662371F096E8862F70E060E02AF09A95A7
:10036000660F771F881FDAF7880F9695879597F99C
:10037000089557FD9058440F551F59F05F3F71F095
:100380004795880F97FB991F61F09F3F79F08795FC
:100390000895121613061406551FF2CF4695F1DF85
:1003A00008C0161617061806991FF1CF8695710515
:1003B000610508940895E894BB2766277727CB0149
:1003C00097F908950E94F5010C9466020E94580264
:1003D00038F00E945F0220F0952311F00C944F0238
:1003E0000C94550211240C94DC010E94B90170F3A5
:1003F000959FC1F3950F50E0551F629FF001729FCA
:10040000BB27F00DB11D639FAA27F00DB11DAA1FD8
:10041000649F6627B00DA11D661F829F2227B00D25
:10042000A11D621F739FB00DA11D621F839FA00DB0
:10043000611D221F749F3327A00D611D231F849F00
:10044000600D211D822F762F6A2F11249F57504057
:100450009AF0F1F088234AF0EE0FFF1FBB1F661FD2
:10046000771F881F91505040A9F79E3F510580F09B
:100470000C944F020C94DC015F3FE4F3983ED4F3FC
:10048000869577956795B795F795E7959F5FC1F73F
:10049000FE2B880F911D9695879597F9089597F9EA
:1004A0009F6780E870E060E008959FEF80EC08951A
:1004B00000240A9416161706180609060895002443
:1004C0000A9412161306140605060895092E0394BD
:1004D000000C11F4882352F0BB0F40F4BF2B11F431
:1004E00060FF04C06F5F7F4F8F4F9F4F0895F89458
:0204F000FFCF3C
:1004F2003F065B4F666D7D077F6F777C395E797152
:00000001FF
