:1000000010C022C021C020C01FC01EC01DC01CC007
:100010001BC01AC019C018C017C016C015C014C024
:1000200013C011241FBECFE5D1E0DEBFCDBF10E06D
:10003000A0E6B0E0E2EEF0E002C005900D92A0373D
:10004000B107D9F715D04BC0DBCFDF9AD6988AB36A
:10005000806B8ABB8AE18DB96F9808958FB980E46F
:100060008EB98BE1769902C08DB9FCCF8FB108951E
:10007000CF93DF93CDB7DEB760970FB6F894DEBFAE
:100080000FBECDBF80E1E0E6F0E0DE011196019009
:100090000D928A95E1F7D9DFD298DA9ADF988981B3
:1000A000DDDFDF9A10E0CA9BFECF1F5F103108F042
:1000B00010E0DF98E1E0F0E0EC0FFD1FE10FF11D33
:1000C00017FDFA958081CADFDF9A2FE38DE093E078
:1000D000215080409040E1F700C00000E4CFF89448
:0200E000FFCF50
:1000E2003F065B4F666D7D077F6F777C395E797166
:00000001FF
