:100000000C943E000C9450000C9450000C94500042
:100010000C9450000C9450000C9450000C94500020
:100020000C9450000C9450000C9450000C94500010
:100030000C9450000C9450000C9450000C94500000
:100040000C9450000C9450000C9450000C945000F0
:100050000C9450000C9452000C9450000C945000DE
:100060000C9450000C9450000C9450000C945000D0
:100070000C9450000C9450000C94500011241FBE9E
:10008000CFEFD8E0DEBFCDBF21E0A0E0B1E001C0FE
:100090001D92A130B207E1F70E946F000C94850019
:1000A0000C9400001F920F920FB60F9211248F93A1
:1000B000809100018093C6008F910F900FBE0F902A
:1000C0001F90189588E28093C10086E08093C2005B
:1000D0001092C5008FEF8093C4007894089586E055
:1000E0008AB988EF8BB90E94620089B1869586959E
:1000F0008695809300012FEF89EF90E0215080409A
:0E0100009040E1F700C00000F0CFF894FFCF70
:00000001FF
