:100000000C943E000C9453000C9453000C94530039
:100010000C9453000C9453000C9453000C94530014
:100020000C9453000C9453000C9453000C94530004
:100030000C9453000C9453000C9453000C945300F4
:100040000C9453000C9453000C9453000C945300E4
:100050000C9453000C9453000C9453000C945300D4
:100060000C9453000C9453000C9453000C945300C4
:100070000C9453000C9453000C94530011241FBE95
:10008000CFEFD8E0DEBFCDBF11E0A0E0B1E0EAE203
:10009000F3E002C005900D92A232B107D9F70E9499
:1000A00051010C9493010C9400000F931F93CF9374
:1000B000DF93182FEB010E94BA0080EA0E94C20071
:1000C000812F0E94C2008E01FE0101900020E9F7FD
:1000D0003197EC1BFD0BC8018C1B9D0B8E179F07E6
:1000E00030F4F80181918F010E94C200EDCF0E948F
:1000F000E00083EC99E00197F1F700C00000DF9188
:10010000CF911F910F9108950F931F93CF93DF937A
:10011000C82F8B010E94BA0080EA0E94C2008C2F77
:100120000E94C2000E94BA0081EA0E94C200C0E0A0
:10013000D0E0F80101900020E9F73197E01BF10BC6
:10014000CE17DF0730F40E94CC000E9416012196E2
:10015000F0CFDF91CF911F910F910C94E00010929E
:10016000B90082E08093B800ECEBF0E0808184601D
:100170008083089584EA8093BC008091BC0087FF4F
:10018000FCCF08958093BB0084E88093BC008091ED
:10019000BC0087FFFCCF089584EC8093BC00809165
:1001A000BC0087FFFCCF8091BB00089584E880935A
:1001B000BC008091BC0087FFFCCF8091BB000895FC
:1001C00084E98093BC008091BC0084FDFCCF08953D
:1001D0008091B900887F089595B19F70282F207F66
:1001E000922B95B92A98299A00C0299832E43A9519
:1001F000F1F700C025B12F7030E1839FC0011124B9
:10020000822B85B9299A00C0299800C0089582E000
:100210000E94EC0088E20E94EC008CE00E94EC005E
:1002200086E00E94EC0081E00C94EC0095B19F7098
:10023000282F207F922B95B92A9A299A00C02998B5
:1002400032E43A95F1F700C025B12F7030E1839F79
:10025000C0011124822B85B9299A00C0299800C0B9
:100260000895CF93DF93EC018991882319F00E94C0
:100270001601FACFDF91CF910895882321F08130C4
:1002800021F480EC03C080E801C080E0603108F414
:10029000860F0C94EC0081E00E94EC0080E80C9446
:1002A000EC00CF93DF9300D000D000D0CDB7DEB705
:1002B00086E0ECE1F1E0DE01119601900D928A9565
:1002C000E1F78FEF84B985B90E9407010E94AF0062
:1002D00062E080E00E943D0180E091E00E943101F7
:1002E00060E081E00E943D0180E191E00E943101E7
:1002F0006BE081E00E943D01BE016F5F7F4F80E0B7
:100300000E945500BE016F5F7F4F80E00E94840015
:1003100080E090E026960FB6F894DEBF0FBECDBF0A
:0A032000DF91CF910895F894FFCF0C
:10032A0020454550524F4D5F4D32344331362000FF
:10033A00454550524F4D5F52203A2000416B726141
:02034A006D0044
:00000001FF
