:1000000010C022C021C020C01FC01EC01DC01CC007
:100010001BC01AC019C018C017C016C015C014C024
:1000200013C011241FBECFE5D1E0DEBFCDBF10E06D
:10003000A0E6B0E0ECE5F1E002C005900D92A0373B
:10004000B107D9F74ED088C0DBCFD69AD49ADC9AC4
:10005000DE9A8FEF8FB98AE28DB980EF8EB908955D
:10006000DE9ADC9ADC9BFECFDE9800C000C0000068
:10007000DC98DE9A0895DE98DC9ACC9BFECF00C017
:1000800000C00000DE9A00C000C00895DC988EB960
:1000900000C000C00000689ACC9BFECF00C000C02A
:1000A000689A769BF5CF00C000C000008FB19FEF2B
:1000B0009FB908958FB980EFE9DFDE988EEFE6DF14
:1000C000DE9A0895CF93DF93D82FDE9880EFDEDF9E
:1000D000C82FDE9ADFB98EEFD9DF8C2FDF91CF9159
:1000E0000895CF93DF93CDB7DEB760970FB6F8943E
:1000F000DEBF0FBECDBF80E1E0E6F0E0DE0111968D
:1001000001900D928A95E1F7D198D99A9EDFA8DFE8
:1001100080E2D0DF8981CEDFAEDF10E0C999FECF6B
:100120001F5F103108F010E09BDF80E2C3DFE1E0E9
:10013000F0E0EC0FFD1FE10FF11D17FDFA95808136
:10014000B9DF99DF2FE38DE093E0215080409040AC
:0C015000E1F700C00000E2CFF894FFCF00
:10015C003F065B4F666D7D077F6F777C395E7971EB
:00000001FF
