:100000000C943E000C9448000C9448000C9448005A
:100010000C9448000C9448000C9448000C94480040
:100020000C9448000C9448000C9448000C94480030
:100030000C9448000C9448000C9448000C94480020
:100040000C9448000C9448000C9448000C94480010
:100050000C9448000C9448000C9448000C94480000
:100060000C9448000C9448000C9448000C944800F0
:100070000C9448000C9448000C94480011241FBEB6
:10008000CFEFD8E0DEBFCDBF0E9474000C9481009A
:100090000C9400008093BA0084EC8093BC00089517
:1000A00084EC8093BC008091BC0087FFFCCF089556
:1000B0008093BB0084EC8093BC008091BC0087FFE0
:1000C000FCCF089584EC8093BC008091BC0087FF36
:1000D000FCCF8091BB008091BB000895ECEBF0E079
:1000E00080818B7B808308958FEF84B980E20E94AA
:1000F0004A000E9450000E94620085B90E946E0072
:06010000F8CFF894FFCFD8
:00000001FF
