:100000000C943E000C9448000C9448000C9448005A
:100010000C9448000C9448000C9448000C94480040
:100020000C9448000C9448000C9448000C94480030
:100030000C9448000C9448000C9448000C94480020
:100040000C9448000C9448000C9448000C94480010
:100050000C9448000C9448000C9448000C94480000
:100060000C9448000C9448000C9448000C944800F0
:100070000C9448000C9448000C94480011241FBEB6
:10008000CFEFD8E0DEBFCDBF0E945B000C946300D1
:100090000C94000084B18F7484B9269A80E48CBDDE
:1000A00008958EBD0DB407FEFDCF08950DB407FE73
:1000B000FDCF8EB508958FEF81B90E944A000E944E
:0A00C000560082B9FCCFF894FFCF80
:00000001FF
