:100000000C943E000C9453000C9453000C94530039
:100010000C9453000C9453000C9453000C94530014
:100020000C9453000C9453000C9453000C94530004
:100030000C9453000C9453000C9453000C945300F4
:100040000C9453000C9453000C9453000C945300E4
:100050000C9453000C9453000C9453000C945300D4
:100060000C9453000C9453000C9453000C945300C4
:100070000C9453000C9453000C94530011241FBE95
:10008000CFEFD8E0DEBFCDBF11E0A0E0B1E0E2EA03
:10009000F1E002C005900D92A031B107D9F70E949E
:1000A00092000C94CF000C9400001092B90082E0F2
:1000B0008093B800ECEBF0E0808184608083089549
:1000C00084EA8093BC008091BC0087FFFCCF089538
:1000D0008093BB0084E88093BC008091BC0087FFC4
:1000E000FCCF089584EC8093BC008091BC0087FF16
:1000F000FCCF8091BB00089584E88093BC00809180
:10010000BC0087FFFCCF8091BB00089584E98093F9
:10011000BC008091BC0084FDFCCF08958091B900A3
:10012000887F0895CF93DF93CDB7DEB760970FB682
:10013000F894DEBF0FBECDBF80E1E0E0F1E0DE016C
:10014000119601900D928A95E1F73A98429A0E9491
:1001500055000E94600080E20E94680089810E9430
:1001600068000E94860010E03299FECF329BFECFDD
:100170001F5F103108F010E00E94600080E20E94D2
:100180006800E1E0F0E0EC0FFD1FE10FF11D17FD4D
:10019000FA9580810E9468000E948600E5CFF8945D
:0201A000FFCF8F
:1001A2003F065B4F666D7D077F6F777C395E7971A5
:00000001FF
