:100000000C943E000C9453000C9453000C94530039
:100010000C9453000C9453000C9453000C94530014
:100020000C9453000C9453000C9453000C94530004
:100030000C9453000C9453000C9453000C945300F4
:100040000C9453000C9453000C9453000C945300E4
:100050000C9453000C9453000C9453000C945300D4
:100060000C9453000C9453000C9453000C945300C4
:100070000C9453000C9453000C94530011241FBE95
:10008000CFEFD8E0DEBFCDBF11E0A0E0B1E0E8E304
:10009000F1E002C005900D92A031B107D9F70E949E
:1000A00067000C949A000C94000084B1806B84B9B2
:1000B00026982C9A81E58CBD08958EBD0DB407FE5F
:1000C000FDCF08950DB407FEFDCF8EB50895CF93F3
:1000D000DF93CDB7DEB760970FB6F894DEBF0FBEE3
:1000E000CDBF80E1E0E0F1E0DE01119601900D92DC
:1000F0008A95E1F70E9455003A98429A2C98898196
:100100000E945D002C9A10E03299FECF329BFECF08
:100110001F5F103108F010E02C98E1E0F0E0EC0FE8
:10012000FD1FE10FF11D17FDFA9580810E945D0012
:080130002C9AEACFF894FFCFEE
:100138003F065B4F666D7D077F6F777C395E79710F
:00000001FF
